{
  "_format": "hh-sol-artifact-1",
  "contractName": "AuctionContract",
  "sourceName": "contracts/AuctionContract.sol",
  "abi": [
    {
      "inputs": [
        {
          "internalType": "contract IERC721",
          "name": "nftContract_",
          "type": "address"
        }
      ],
      "stateMutability": "nonpayable",
      "type": "constructor"
    },
    {
      "inputs": [
        {
          "internalType": "address",
          "name": "owner",
          "type": "address"
        }
      ],
      "name": "OwnableInvalidOwner",
      "type": "error"
    },
    {
      "inputs": [
        {
          "internalType": "address",
          "name": "account",
          "type": "address"
        }
      ],
      "name": "OwnableUnauthorizedAccount",
      "type": "error"
    },
    {
      "inputs": [],
      "name": "ReentrancyGuardReentrantCall",
      "type": "error"
    },
    {
      "anonymous": false,
      "inputs": [
        {
          "indexed": false,
          "internalType": "uint256",
          "name": "auctionId",
          "type": "uint256"
        }
      ],
      "name": "AuctionCreated",
      "type": "event"
    },
    {
      "anonymous": false,
      "inputs": [
        {
          "indexed": false,
          "internalType": "uint256",
          "name": "auctionId",
          "type": "uint256"
        },
        {
          "indexed": false,
          "internalType": "address",
          "name": "bidder",
          "type": "address"
        },
        {
          "indexed": false,
          "internalType": "uint256",
          "name": "value",
          "type": "uint256"
        }
      ],
      "name": "BidPlaced",
      "type": "event"
    },
    {
      "anonymous": false,
      "inputs": [
        {
          "indexed": false,
          "internalType": "uint256",
          "name": "auctionId",
          "type": "uint256"
        }
      ],
      "name": "NFTClaimed",
      "type": "event"
    },
    {
      "anonymous": false,
      "inputs": [
        {
          "indexed": true,
          "internalType": "address",
          "name": "previousOwner",
          "type": "address"
        },
        {
          "indexed": true,
          "internalType": "address",
          "name": "newOwner",
          "type": "address"
        }
      ],
      "name": "OwnershipTransferred",
      "type": "event"
    },
    {
      "inputs": [
        {
          "internalType": "uint256",
          "name": "",
          "type": "uint256"
        }
      ],
      "name": "auctions",
      "outputs": [
        {
          "internalType": "address",
          "name": "seller",
          "type": "address"
        },
        {
          "internalType": "uint256",
          "name": "tokenId",
          "type": "uint256"
        },
        {
          "internalType": "uint256",
          "name": "deadline",
          "type": "uint256"
        },
        {
          "internalType": "address",
          "name": "bidder",
          "type": "address"
        },
        {
          "internalType": "uint256",
          "name": "bidValue",
          "type": "uint256"
        },
        {
          "internalType": "bool",
          "name": "claimedNft",
          "type": "bool"
        }
      ],
      "stateMutability": "view",
      "type": "function"
    },
    {
      "inputs": [],
      "name": "auctionsCount",
      "outputs": [
        {
          "internalType": "uint256",
          "name": "",
          "type": "uint256"
        }
      ],
      "stateMutability": "view",
      "type": "function"
    },
    {
      "inputs": [
        {
          "internalType": "uint256",
          "name": "auctionId",
          "type": "uint256"
        },
        {
          "internalType": "uint256",
          "name": "value",
          "type": "uint256"
        }
      ],
      "name": "bid",
      "outputs": [],
      "stateMutability": "nonpayable",
      "type": "function"
    },
    {
      "inputs": [
        {
          "internalType": "uint256",
          "name": "auctionId",
          "type": "uint256"
        }
      ],
      "name": "claimNft",
      "outputs": [],
      "stateMutability": "nonpayable",
      "type": "function"
    },
    {
      "inputs": [
        {
          "internalType": "uint256",
          "name": "tokenId",
          "type": "uint256"
        },
        {
          "internalType": "uint256",
          "name": "deadline",
          "type": "uint256"
        }
      ],
      "name": "create",
      "outputs": [],
      "stateMutability": "nonpayable",
      "type": "function"
    },
    {
      "inputs": [],
      "name": "nftContract",
      "outputs": [
        {
          "internalType": "contract IERC721",
          "name": "",
          "type": "address"
        }
      ],
      "stateMutability": "view",
      "type": "function"
    },
    {
      "inputs": [
        {
          "internalType": "address",
          "name": "",
          "type": "address"
        },
        {
          "internalType": "address",
          "name": "",
          "type": "address"
        },
        {
          "internalType": "uint256",
          "name": "",
          "type": "uint256"
        },
        {
          "internalType": "bytes",
          "name": "",
          "type": "bytes"
        }
      ],
      "name": "onERC721Received",
      "outputs": [
        {
          "internalType": "bytes4",
          "name": "",
          "type": "bytes4"
        }
      ],
      "stateMutability": "pure",
      "type": "function"
    },
    {
      "inputs": [],
      "name": "owner",
      "outputs": [
        {
          "internalType": "address",
          "name": "",
          "type": "address"
        }
      ],
      "stateMutability": "view",
      "type": "function"
    },
    {
      "inputs": [],
      "name": "renounceOwnership",
      "outputs": [],
      "stateMutability": "nonpayable",
      "type": "function"
    },
    {
      "inputs": [
        {
          "internalType": "address",
          "name": "newOwner",
          "type": "address"
        }
      ],
      "name": "transferOwnership",
      "outputs": [],
      "stateMutability": "nonpayable",
      "type": "function"
    }
  ],
  "bytecode": "0x60806040523480156200001157600080fd5b506040516200138638038062001386833981810160405281019062000037919062000250565b33600073ffffffffffffffffffffffffffffffffffffffff168173ffffffffffffffffffffffffffffffffffffffff1603620000ad5760006040517f1e4fbdf7000000000000000000000000000000000000000000000000000000008152600401620000a4919062000293565b60405180910390fd5b620000be816200010e60201b60201c565b506001808190555080600260006101000a81548173ffffffffffffffffffffffffffffffffffffffff021916908373ffffffffffffffffffffffffffffffffffffffff16021790555050620002b0565b60008060009054906101000a900473ffffffffffffffffffffffffffffffffffffffff169050816000806101000a81548173ffffffffffffffffffffffffffffffffffffffff021916908373ffffffffffffffffffffffffffffffffffffffff1602179055508173ffffffffffffffffffffffffffffffffffffffff168173ffffffffffffffffffffffffffffffffffffffff167f8be0079c531659141344cd1fd0a4f28419497f9722a3daafe3b4186f6b6457e060405160405180910390a35050565b600080fd5b600073ffffffffffffffffffffffffffffffffffffffff82169050919050565b60006200020482620001d7565b9050919050565b60006200021882620001f7565b9050919050565b6200022a816200020b565b81146200023657600080fd5b50565b6000815190506200024a816200021f565b92915050565b600060208284031215620002695762000268620001d2565b5b6000620002798482850162000239565b91505092915050565b6200028d81620001f7565b82525050565b6000602082019050620002aa600083018462000282565b92915050565b6110c680620002c06000396000f3fe608060405234801561001057600080fd5b506004361061009e5760003560e01c80638da5cb5b116100665780638da5cb5b1461014a5780639f7b457914610168578063b830620a14610184578063d56d229d146101a2578063f2fde38b146101c05761009e565b8063150b7a02146100a35780632ec09d39146100d3578063571a26a0146100ef578063598647f814610124578063715018a614610140575b600080fd5b6100bd60048036038101906100b89190610b70565b6101dc565b6040516100ca9190610c33565b60405180910390f35b6100ed60048036038101906100e89190610c4e565b6101f1565b005b61010960048036038101906101049190610c4e565b6103c1565b60405161011b96959493929190610cb4565b60405180910390f35b61013e60048036038101906101399190610d15565b61045a565b005b6101486105a8565b005b6101526105bc565b60405161015f9190610d55565b60405180910390f35b610182600480360381019061017d9190610d15565b6105e5565b005b61018c610812565b6040516101999190610d70565b60405180910390f35b6101aa61081f565b6040516101b79190610dea565b60405180910390f35b6101da60048036038101906101d59190610e05565b610845565b005b600063150b7a0260e01b905095945050505050565b60006003828154811061020757610206610e32565b5b90600052602060002090600602019050806002015442101561025e576040517f08c379a000000000000000000000000000000000000000000000000000000000815260040161025590610ebe565b60405180910390fd5b8060050160009054906101000a900460ff16156102b0576040517f08c379a00000000000000000000000000000000000000000000000000000000081526004016102a790610f2a565b60405180910390fd5b60018160050160006101000a81548160ff021916908315150217905550600260009054906101000a900473ffffffffffffffffffffffffffffffffffffffff1673ffffffffffffffffffffffffffffffffffffffff166342842e0e308360030160009054906101000a900473ffffffffffffffffffffffffffffffffffffffff1684600101546040518463ffffffff1660e01b815260040161035493929190610f4a565b600060405180830381600087803b15801561036e57600080fd5b505af1158015610382573d6000803e3d6000fd5b505050507f10cbafd51581222f51ee11cbbcde5637b97cb913d4fce06817002c8938f7adfb826040516103b59190610d70565b60405180910390a15050565b600381815481106103d157600080fd5b90600052602060002090600602016000915090508060000160009054906101000a900473ffffffffffffffffffffffffffffffffffffffff16908060010154908060020154908060030160009054906101000a900473ffffffffffffffffffffffffffffffffffffffff16908060040154908060050160009054906101000a900460ff16905086565b6104626108cb565b60006003838154811061047857610477610e32565b5b90600052602060002090600602019050806004015482116104ce576040517f08c379a00000000000000000000000000000000000000000000000000000000081526004016104c590610fcd565b60405180910390fd5b80600201544210610514576040517f08c379a000000000000000000000000000000000000000000000000000000000815260040161050b90611039565b60405180910390fd5b338160030160006101000a81548173ffffffffffffffffffffffffffffffffffffffff021916908373ffffffffffffffffffffffffffffffffffffffff1602179055508181600401819055507f0e54eff26401bf69b81b26f60bd85ef47f5d85275c1d268d84f68d6897431c4783338460405161059393929190611059565b60405180910390a1506105a4610911565b5050565b6105b061091a565b6105ba60006109a1565b565b60008060009054906101000a900473ffffffffffffffffffffffffffffffffffffffff16905090565b600260009054906101000a900473ffffffffffffffffffffffffffffffffffffffff1673ffffffffffffffffffffffffffffffffffffffff166342842e0e3330856040518463ffffffff1660e01b815260040161064493929190610f4a565b600060405180830381600087803b15801561065e57600080fd5b505af1158015610672573d6000803e3d6000fd5b5050505060006040518060c001604052803373ffffffffffffffffffffffffffffffffffffffff1681526020018481526020018381526020013373ffffffffffffffffffffffffffffffffffffffff16815260200160008152602001600015158152509050600381908060018154018082558091505060019003906000526020600020906006020160009091909190915060008201518160000160006101000a81548173ffffffffffffffffffffffffffffffffffffffff021916908373ffffffffffffffffffffffffffffffffffffffff160217905550602082015181600101556040820151816002015560608201518160030160006101000a81548173ffffffffffffffffffffffffffffffffffffffff021916908373ffffffffffffffffffffffffffffffffffffffff1602179055506080820151816004015560a08201518160050160006101000a81548160ff02191690831515021790555050507f7e0e356457a92dacd3760ddf327a24dd226c6ca01b2cc41a7fd6f28469c7ab9b6003805490506040516108059190610d70565b60405180910390a1505050565b6000600380549050905090565b600260009054906101000a900473ffffffffffffffffffffffffffffffffffffffff1681565b61084d61091a565b600073ffffffffffffffffffffffffffffffffffffffff168173ffffffffffffffffffffffffffffffffffffffff16036108bf5760006040517f1e4fbdf70000000000000000000000000000000000000000000000000000000081526004016108b69190610d55565b60405180910390fd5b6108c8816109a1565b50565b600260015403610907576040517f3ee5aeb500000000000000000000000000000000000000000000000000000000815260040160405180910390fd5b6002600181905550565b60018081905550565b610922610a65565b73ffffffffffffffffffffffffffffffffffffffff166109406105bc565b73ffffffffffffffffffffffffffffffffffffffff161461099f57610963610a65565b6040517f118cdaa70000000000000000000000000000000000000000000000000000000081526004016109969190610d55565b60405180910390fd5b565b60008060009054906101000a900473ffffffffffffffffffffffffffffffffffffffff169050816000806101000a81548173ffffffffffffffffffffffffffffffffffffffff021916908373ffffffffffffffffffffffffffffffffffffffff1602179055508173ffffffffffffffffffffffffffffffffffffffff168173ffffffffffffffffffffffffffffffffffffffff167f8be0079c531659141344cd1fd0a4f28419497f9722a3daafe3b4186f6b6457e060405160405180910390a35050565b600033905090565b600080fd5b600080fd5b600073ffffffffffffffffffffffffffffffffffffffff82169050919050565b6000610aa282610a77565b9050919050565b610ab281610a97565b8114610abd57600080fd5b50565b600081359050610acf81610aa9565b92915050565b6000819050919050565b610ae881610ad5565b8114610af357600080fd5b50565b600081359050610b0581610adf565b92915050565b600080fd5b600080fd5b600080fd5b60008083601f840112610b3057610b2f610b0b565b5b8235905067ffffffffffffffff811115610b4d57610b4c610b10565b5b602083019150836001820283011115610b6957610b68610b15565b5b9250929050565b600080600080600060808688031215610b8c57610b8b610a6d565b5b6000610b9a88828901610ac0565b9550506020610bab88828901610ac0565b9450506040610bbc88828901610af6565b935050606086013567ffffffffffffffff811115610bdd57610bdc610a72565b5b610be988828901610b1a565b92509250509295509295909350565b60007fffffffff0000000000000000000000000000000000000000000000000000000082169050919050565b610c2d81610bf8565b82525050565b6000602082019050610c486000830184610c24565b92915050565b600060208284031215610c6457610c63610a6d565b5b6000610c7284828501610af6565b91505092915050565b610c8481610a97565b82525050565b610c9381610ad5565b82525050565b60008115159050919050565b610cae81610c99565b82525050565b600060c082019050610cc96000830189610c7b565b610cd66020830188610c8a565b610ce36040830187610c8a565b610cf06060830186610c7b565b610cfd6080830185610c8a565b610d0a60a0830184610ca5565b979650505050505050565b60008060408385031215610d2c57610d2b610a6d565b5b6000610d3a85828601610af6565b9250506020610d4b85828601610af6565b9150509250929050565b6000602082019050610d6a6000830184610c7b565b92915050565b6000602082019050610d856000830184610c8a565b92915050565b6000819050919050565b6000610db0610dab610da684610a77565b610d8b565b610a77565b9050919050565b6000610dc282610d95565b9050919050565b6000610dd482610db7565b9050919050565b610de481610dc9565b82525050565b6000602082019050610dff6000830184610ddb565b92915050565b600060208284031215610e1b57610e1a610a6d565b5b6000610e2984828501610ac0565b91505092915050565b7f4e487b7100000000000000000000000000000000000000000000000000000000600052603260045260246000fd5b600082825260208201905092915050565b7f446561646c696e65206e6f742079657420726561636865640000000000000000600082015250565b6000610ea8601883610e61565b9150610eb382610e72565b602082019050919050565b60006020820190508181036000830152610ed781610e9b565b9050919050565b7f4e465420616c726561647920636c61696d656400000000000000000000000000600082015250565b6000610f14601383610e61565b9150610f1f82610ede565b602082019050919050565b60006020820190508181036000830152610f4381610f07565b9050919050565b6000606082019050610f5f6000830186610c7b565b610f6c6020830185610c7b565b610f796040830184610c8a565b949350505050565b7f426964206d757374206265206869676865720000000000000000000000000000600082015250565b6000610fb7601283610e61565b9150610fc282610f81565b602082019050919050565b60006020820190508181036000830152610fe681610faa565b9050919050565b7f43616e6e6f7420706c6163652062696420616674657220646561646c696e6500600082015250565b6000611023601f83610e61565b915061102e82610fed565b602082019050919050565b6000602082019050818103600083015261105281611016565b9050919050565b600060608201905061106e6000830186610c8a565b61107b6020830185610c7b565b6110886040830184610c8a565b94935050505056fea264697066735822122026107570f1cd717a865349a35d067d5450e95f7aa1118b66a46d99173731d5ca64736f6c63430008180033",
  "linkReferences": {},
  "deployedLinkReferences": {}
}